{
  "contractName": "TransactionStorage",
  "abi": [
    {
      "inputs": [
        {
          "internalType": "uint256",
          "name": "",
          "type": "uint256"
        }
      ],
      "name": "transactions",
      "outputs": [
        {
          "internalType": "address",
          "name": "sender_addr",
          "type": "address"
        },
        {
          "internalType": "address",
          "name": "receiver_addr",
          "type": "address"
        },
        {
          "internalType": "uint256",
          "name": "sender",
          "type": "uint256"
        },
        {
          "internalType": "uint256",
          "name": "receiver",
          "type": "uint256"
        },
        {
          "internalType": "string",
          "name": "sender_nme",
          "type": "string"
        },
        {
          "internalType": "string",
          "name": "receiver_nme",
          "type": "string"
        },
        {
          "internalType": "uint256",
          "name": "amount",
          "type": "uint256"
        },
        {
          "internalType": "uint256",
          "name": "asset_uid",
          "type": "uint256"
        },
        {
          "internalType": "uint256",
          "name": "timestamp",
          "type": "uint256"
        }
      ],
      "stateMutability": "view",
      "type": "function",
      "constant": true
    },
    {
      "inputs": [
        {
          "internalType": "address payable",
          "name": "_receiver_addr",
          "type": "address"
        },
        {
          "internalType": "uint256",
          "name": "_asset_uid",
          "type": "uint256"
        },
        {
          "internalType": "uint256",
          "name": "_receiver",
          "type": "uint256"
        },
        {
          "internalType": "uint256",
          "name": "_sender",
          "type": "uint256"
        },
        {
          "internalType": "string",
          "name": "_sender_nme",
          "type": "string"
        },
        {
          "internalType": "string",
          "name": "_receiver_nme",
          "type": "string"
        }
      ],
      "name": "addTransaction",
      "outputs": [],
      "stateMutability": "payable",
      "type": "function",
      "payable": true
    },
    {
      "inputs": [],
      "name": "getTransactionCount",
      "outputs": [
        {
          "internalType": "uint256",
          "name": "",
          "type": "uint256"
        }
      ],
      "stateMutability": "view",
      "type": "function",
      "constant": true
    },
    {
      "inputs": [],
      "name": "getTransactions",
      "outputs": [
        {
          "components": [
            {
              "internalType": "address",
              "name": "sender_addr",
              "type": "address"
            },
            {
              "internalType": "address",
              "name": "receiver_addr",
              "type": "address"
            },
            {
              "internalType": "uint256",
              "name": "sender",
              "type": "uint256"
            },
            {
              "internalType": "uint256",
              "name": "receiver",
              "type": "uint256"
            },
            {
              "internalType": "string",
              "name": "sender_nme",
              "type": "string"
            },
            {
              "internalType": "string",
              "name": "receiver_nme",
              "type": "string"
            },
            {
              "internalType": "uint256",
              "name": "amount",
              "type": "uint256"
            },
            {
              "internalType": "uint256",
              "name": "asset_uid",
              "type": "uint256"
            },
            {
              "internalType": "uint256",
              "name": "timestamp",
              "type": "uint256"
            }
          ],
          "internalType": "struct TransactionStorage.Transaction[]",
          "name": "",
          "type": "tuple[]"
        }
      ],
      "stateMutability": "view",
      "type": "function",
      "constant": true
    },
    {
      "inputs": [
        {
          "internalType": "uint256",
          "name": "index",
          "type": "uint256"
        }
      ],
      "name": "getTransactionByIndex",
      "outputs": [
        {
          "components": [
            {
              "internalType": "address",
              "name": "sender_addr",
              "type": "address"
            },
            {
              "internalType": "address",
              "name": "receiver_addr",
              "type": "address"
            },
            {
              "internalType": "uint256",
              "name": "sender",
              "type": "uint256"
            },
            {
              "internalType": "uint256",
              "name": "receiver",
              "type": "uint256"
            },
            {
              "internalType": "string",
              "name": "sender_nme",
              "type": "string"
            },
            {
              "internalType": "string",
              "name": "receiver_nme",
              "type": "string"
            },
            {
              "internalType": "uint256",
              "name": "amount",
              "type": "uint256"
            },
            {
              "internalType": "uint256",
              "name": "asset_uid",
              "type": "uint256"
            },
            {
              "internalType": "uint256",
              "name": "timestamp",
              "type": "uint256"
            }
          ],
          "internalType": "struct TransactionStorage.Transaction",
          "name": "",
          "type": "tuple"
        }
      ],
      "stateMutability": "view",
      "type": "function",
      "constant": true
    },
    {
      "inputs": [
        {
          "internalType": "address",
          "name": "wallet",
          "type": "address"
        }
      ],
      "name": "getTransactionsByWallet",
      "outputs": [
        {
          "components": [
            {
              "internalType": "address",
              "name": "sender_addr",
              "type": "address"
            },
            {
              "internalType": "address",
              "name": "receiver_addr",
              "type": "address"
            },
            {
              "internalType": "uint256",
              "name": "sender",
              "type": "uint256"
            },
            {
              "internalType": "uint256",
              "name": "receiver",
              "type": "uint256"
            },
            {
              "internalType": "string",
              "name": "sender_nme",
              "type": "string"
            },
            {
              "internalType": "string",
              "name": "receiver_nme",
              "type": "string"
            },
            {
              "internalType": "uint256",
              "name": "amount",
              "type": "uint256"
            },
            {
              "internalType": "uint256",
              "name": "asset_uid",
              "type": "uint256"
            },
            {
              "internalType": "uint256",
              "name": "timestamp",
              "type": "uint256"
            }
          ],
          "internalType": "struct TransactionStorage.Transaction[]",
          "name": "",
          "type": "tuple[]"
        }
      ],
      "stateMutability": "view",
      "type": "function",
      "constant": true
    }
  ],
  "bytecode": "0x608060405234801561001057600080fd5b50611c4d806100206000396000f3fe6080604052600436106100555760003560e01c80632e7700f01461005a5780634bef6f031461008557806383920e90146100a1578063869152e7146100cc5780639ace38c214610109578063d5aaa09c1461014e575b600080fd5b34801561006657600080fd5b5061006f61018b565b60405161007c9190611076565b60405180910390f35b61009f600480360381019061009a9190611275565b610197565b005b3480156100ad57600080fd5b506100b66103cc565b6040516100c39190611577565b60405180910390f35b3480156100d857600080fd5b506100f360048036038101906100ee9190611599565b61062e565b6040516101009190611692565b60405180910390f35b34801561011557600080fd5b50610130600480360381019061012b9190611599565b610934565b6040516101459998979695949392919061170d565b60405180910390f35b34801561015a57600080fd5b50610175600480360381019061017091906117d4565b610ae2565b6040516101829190611577565b60405180910390f35b60008080549050905090565b343373ffffffffffffffffffffffffffffffffffffffff163110156101f1576040517f08c379a00000000000000000000000000000000000000000000000000000000081526004016101e890611873565b60405180910390fd5b8573ffffffffffffffffffffffffffffffffffffffff166108fc349081150290604051600060405180830381858888f19350505050158015610237573d6000803e3d6000fd5b5060006040518061012001604052803373ffffffffffffffffffffffffffffffffffffffff1681526020018873ffffffffffffffffffffffffffffffffffffffff168152602001858152602001868152602001848152602001838152602001348152602001878152602001428152509050600081908060018154018082558091505060019003906000526020600020906009020160009091909190915060008201518160000160006101000a81548173ffffffffffffffffffffffffffffffffffffffff021916908373ffffffffffffffffffffffffffffffffffffffff16021790555060208201518160010160006101000a81548173ffffffffffffffffffffffffffffffffffffffff021916908373ffffffffffffffffffffffffffffffffffffffff1602179055506040820151816002015560608201518160030155608082015181600401908161038b9190611a9f565b5060a08201518160050190816103a19190611a9f565b5060c0820151816006015560e082015181600701556101008201518160080155505050505050505050565b60606000805480602002602001604051908101604052809291908181526020016000905b828210156106255783829060005260206000209060090201604051806101200160405290816000820160009054906101000a900473ffffffffffffffffffffffffffffffffffffffff1673ffffffffffffffffffffffffffffffffffffffff1673ffffffffffffffffffffffffffffffffffffffff1681526020016001820160009054906101000a900473ffffffffffffffffffffffffffffffffffffffff1673ffffffffffffffffffffffffffffffffffffffff1673ffffffffffffffffffffffffffffffffffffffff16815260200160028201548152602001600382015481526020016004820180546104e4906118c2565b80601f0160208091040260200160405190810160405280929190818152602001828054610510906118c2565b801561055d5780601f106105325761010080835404028352916020019161055d565b820191906000526020600020905b81548152906001019060200180831161054057829003601f168201915b50505050508152602001600582018054610576906118c2565b80601f01602080910402602001604051908101604052809291908181526020018280546105a2906118c2565b80156105ef5780601f106105c4576101008083540402835291602001916105ef565b820191906000526020600020905b8154815290600101906020018083116105d257829003601f168201915b505050505081526020016006820154815260200160078201548152602001600882015481525050815260200190600101906103f0565b50505050905090565b610636610fe5565b6000604051806101200160405280600073ffffffffffffffffffffffffffffffffffffffff168152602001600073ffffffffffffffffffffffffffffffffffffffff16815260200160008152602001600081526020016040518060200160405280600081525081526020016040518060200160405280600081525081526020016000815260200160008152602001600081525090506000808054905014806106e2575060008054905083115b806106ed5750600083105b156106fb578091505061092f565b6000838154811061070f5761070e611b71565b5b9060005260206000209060090201604051806101200160405290816000820160009054906101000a900473ffffffffffffffffffffffffffffffffffffffff1673ffffffffffffffffffffffffffffffffffffffff1673ffffffffffffffffffffffffffffffffffffffff1681526020016001820160009054906101000a900473ffffffffffffffffffffffffffffffffffffffff1673ffffffffffffffffffffffffffffffffffffffff1673ffffffffffffffffffffffffffffffffffffffff16815260200160028201548152602001600382015481526020016004820180546107f9906118c2565b80601f0160208091040260200160405190810160405280929190818152602001828054610825906118c2565b80156108725780601f1061084757610100808354040283529160200191610872565b820191906000526020600020905b81548152906001019060200180831161085557829003601f168201915b5050505050815260200160058201805461088b906118c2565b80601f01602080910402602001604051908101604052809291908181526020018280546108b7906118c2565b80156109045780601f106108d957610100808354040283529160200191610904565b820191906000526020600020905b8154815290600101906020018083116108e757829003601f168201915b5050505050815260200160068201548152602001600782015481526020016008820154815250509150505b919050565b6000818154811061094457600080fd5b90600052602060002090600902016000915090508060000160009054906101000a900473ffffffffffffffffffffffffffffffffffffffff16908060010160009054906101000a900473ffffffffffffffffffffffffffffffffffffffff16908060020154908060030154908060040180546109bf906118c2565b80601f01602080910402602001604051908101604052809291908181526020018280546109eb906118c2565b8015610a385780601f10610a0d57610100808354040283529160200191610a38565b820191906000526020600020905b815481529060010190602001808311610a1b57829003601f168201915b505050505090806005018054610a4d906118c2565b80601f0160208091040260200160405190810160405280929190818152602001828054610a79906118c2565b8015610ac65780601f10610a9b57610100808354040283529160200191610ac6565b820191906000526020600020905b815481529060010190602001808311610aa957829003601f168201915b5050505050908060060154908060070154908060080154905089565b60606000808080549050905060005b81811015610c0f578473ffffffffffffffffffffffffffffffffffffffff1660008281548110610b2457610b23611b71565b5b906000526020600020906009020160000160009054906101000a900473ffffffffffffffffffffffffffffffffffffffff1673ffffffffffffffffffffffffffffffffffffffff161480610be857508473ffffffffffffffffffffffffffffffffffffffff1660008281548110610b9e57610b9d611b71565b5b906000526020600020906009020160010160009054906101000a900473ffffffffffffffffffffffffffffffffffffffff1673ffffffffffffffffffffffffffffffffffffffff16145b15610bfc578280610bf890611bcf565b9350505b8080610c0790611bcf565b915050610af1565b5060008267ffffffffffffffff811115610c2c57610c2b61114a565b5b604051908082528060200260200182016040528015610c6557816020015b610c52610fe5565b815260200190600190039081610c4a5790505b5090506000805b83811015610fd8578673ffffffffffffffffffffffffffffffffffffffff1660008281548110610c9f57610c9e611b71565b5b906000526020600020906009020160000160009054906101000a900473ffffffffffffffffffffffffffffffffffffffff1673ffffffffffffffffffffffffffffffffffffffff161480610d6357508673ffffffffffffffffffffffffffffffffffffffff1660008281548110610d1957610d18611b71565b5b906000526020600020906009020160010160009054906101000a900473ffffffffffffffffffffffffffffffffffffffff1673ffffffffffffffffffffffffffffffffffffffff16145b15610fc55760008181548110610d7c57610d7b611b71565b5b9060005260206000209060090201604051806101200160405290816000820160009054906101000a900473ffffffffffffffffffffffffffffffffffffffff1673ffffffffffffffffffffffffffffffffffffffff1673ffffffffffffffffffffffffffffffffffffffff1681526020016001820160009054906101000a900473ffffffffffffffffffffffffffffffffffffffff1673ffffffffffffffffffffffffffffffffffffffff1673ffffffffffffffffffffffffffffffffffffffff1681526020016002820154815260200160038201548152602001600482018054610e66906118c2565b80601f0160208091040260200160405190810160405280929190818152602001828054610e92906118c2565b8015610edf5780601f10610eb457610100808354040283529160200191610edf565b820191906000526020600020905b815481529060010190602001808311610ec257829003601f168201915b50505050508152602001600582018054610ef8906118c2565b80601f0160208091040260200160405190810160405280929190818152602001828054610f24906118c2565b8015610f715780601f10610f4657610100808354040283529160200191610f71565b820191906000526020600020905b815481529060010190602001808311610f5457829003601f168201915b505050505081526020016006820154815260200160078201548152602001600882015481525050838381518110610fab57610faa611b71565b5b60200260200101819052508180610fc190611bcf565b9250505b8080610fd090611bcf565b915050610c6c565b5081945050505050919050565b604051806101200160405280600073ffffffffffffffffffffffffffffffffffffffff168152602001600073ffffffffffffffffffffffffffffffffffffffff168152602001600081526020016000815260200160608152602001606081526020016000815260200160008152602001600081525090565b6000819050919050565b6110708161105d565b82525050565b600060208201905061108b6000830184611067565b92915050565b6000604051905090565b600080fd5b600080fd5b600073ffffffffffffffffffffffffffffffffffffffff82169050919050565b60006110d0826110a5565b9050919050565b6110e0816110c5565b81146110eb57600080fd5b50565b6000813590506110fd816110d7565b92915050565b61110c8161105d565b811461111757600080fd5b50565b60008135905061112981611103565b92915050565b600080fd5b600080fd5b6000601f19601f8301169050919050565b7f4e487b7100000000000000000000000000000000000000000000000000000000600052604160045260246000fd5b61118282611139565b810181811067ffffffffffffffff821117156111a1576111a061114a565b5b80604052505050565b60006111b4611091565b90506111c08282611179565b919050565b600067ffffffffffffffff8211156111e0576111df61114a565b5b6111e982611139565b9050602081019050919050565b82818337600083830152505050565b6000611218611213846111c5565b6111aa565b90508281526020810184848401111561123457611233611134565b5b61123f8482856111f6565b509392505050565b600082601f83011261125c5761125b61112f565b5b813561126c848260208601611205565b91505092915050565b60008060008060008060c087890312156112925761129161109b565b5b60006112a089828a016110ee565b96505060206112b189828a0161111a565b95505060406112c289828a0161111a565b94505060606112d389828a0161111a565b935050608087013567ffffffffffffffff8111156112f4576112f36110a0565b5b61130089828a01611247565b92505060a087013567ffffffffffffffff811115611321576113206110a0565b5b61132d89828a01611247565b9150509295509295509295565b600081519050919050565b600082825260208201905092915050565b6000819050602082019050919050565b6000611371826110a5565b9050919050565b61138181611366565b82525050565b6113908161105d565b82525050565b600081519050919050565b600082825260208201905092915050565b60005b838110156113d05780820151818401526020810190506113b5565b60008484015250505050565b60006113e782611396565b6113f181856113a1565b93506114018185602086016113b2565b61140a81611139565b840191505092915050565b60006101208301600083015161142e6000860182611378565b5060208301516114416020860182611378565b5060408301516114546040860182611387565b5060608301516114676060860182611387565b506080830151848203608086015261147f82826113dc565b91505060a083015184820360a086015261149982826113dc565b91505060c08301516114ae60c0860182611387565b5060e08301516114c160e0860182611387565b506101008301516114d6610100860182611387565b508091505092915050565b60006114ed8383611415565b905092915050565b6000602082019050919050565b600061150d8261133a565b6115178185611345565b93508360208202850161152985611356565b8060005b85811015611565578484038952815161154685826114e1565b9450611551836114f5565b925060208a0199505060018101905061152d565b50829750879550505050505092915050565b600060208201905081810360008301526115918184611502565b905092915050565b6000602082840312156115af576115ae61109b565b5b60006115bd8482850161111a565b91505092915050565b6000610120830160008301516115df6000860182611378565b5060208301516115f26020860182611378565b5060408301516116056040860182611387565b5060608301516116186060860182611387565b506080830151848203608086015261163082826113dc565b91505060a083015184820360a086015261164a82826113dc565b91505060c083015161165f60c0860182611387565b5060e083015161167260e0860182611387565b50610100830151611687610100860182611387565b508091505092915050565b600060208201905081810360008301526116ac81846115c6565b905092915050565b6116bd81611366565b82525050565b600082825260208201905092915050565b60006116df82611396565b6116e981856116c3565b93506116f98185602086016113b2565b61170281611139565b840191505092915050565b600061012082019050611723600083018c6116b4565b611730602083018b6116b4565b61173d604083018a611067565b61174a6060830189611067565b818103608083015261175c81886116d4565b905081810360a083015261177081876116d4565b905061177f60c0830186611067565b61178c60e0830185611067565b61179a610100830184611067565b9a9950505050505050505050565b6117b181611366565b81146117bc57600080fd5b50565b6000813590506117ce816117a8565b92915050565b6000602082840312156117ea576117e961109b565b5b60006117f8848285016117bf565b91505092915050565b7f496e73756666696369656e742062616c616e636520746f20636f766572206e6560008201527f7420616d6f756e74000000000000000000000000000000000000000000000000602082015250565b600061185d6028836116c3565b915061186882611801565b604082019050919050565b6000602082019050818103600083015261188c81611850565b9050919050565b7f4e487b7100000000000000000000000000000000000000000000000000000000600052602260045260246000fd5b600060028204905060018216806118da57607f821691505b6020821081036118ed576118ec611893565b5b50919050565b60008190508160005260206000209050919050565b60006020601f8301049050919050565b600082821b905092915050565b6000600883026119557fffffffffffffffffffffffffffffffffffffffffffffffffffffffffffffffff82611918565b61195f8683611918565b95508019841693508086168417925050509392505050565b6000819050919050565b600061199c6119976119928461105d565b611977565b61105d565b9050919050565b6000819050919050565b6119b683611981565b6119ca6119c2826119a3565b848454611925565b825550505050565b600090565b6119df6119d2565b6119ea8184846119ad565b505050565b5b81811015611a0e57611a036000826119d7565b6001810190506119f0565b5050565b601f821115611a5357611a24816118f3565b611a2d84611908565b81016020851015611a3c578190505b611a50611a4885611908565b8301826119ef565b50505b505050565b600082821c905092915050565b6000611a7660001984600802611a58565b1980831691505092915050565b6000611a8f8383611a65565b9150826002028217905092915050565b611aa882611396565b67ffffffffffffffff811115611ac157611ac061114a565b5b611acb82546118c2565b611ad6828285611a12565b600060209050601f831160018114611b095760008415611af7578287015190505b611b018582611a83565b865550611b69565b601f198416611b17866118f3565b60005b82811015611b3f57848901518255600182019150602085019450602081019050611b1a565b86831015611b5c5784890151611b58601f891682611a65565b8355505b6001600288020188555050505b505050505050565b7f4e487b7100000000000000000000000000000000000000000000000000000000600052603260045260246000fd5b7f4e487b7100000000000000000000000000000000000000000000000000000000600052601160045260246000fd5b6000611bda8261105d565b91507fffffffffffffffffffffffffffffffffffffffffffffffffffffffffffffffff8203611c0c57611c0b611ba0565b5b60018201905091905056fea2646970667358221220d6bb3288545831091666d2cc99e4f565dca3031f4223a2dbb88af3b954bdfe3b64736f6c63430008130033",
  "immutableReferences": {},
  "source": "// SPDX-License-Identifier: MIT\r\npragma solidity ^0.8.19;\r\n\r\ncontract TransactionStorage {\r\n    struct Transaction {\r\n        address sender_addr; //buyer wallet address\r\n        address receiver_addr; //seller wallet address\r\n        uint256 sender; //unique identifier of buyer\r\n        uint256 receiver; //unique identifier of seller\r\n        string sender_nme; //buyer name\r\n        string receiver_nme; //seller name\r\n        uint256 amount; //price to buy nft - amount is represented in wei\r\n        uint256 asset_uid; //unique identifer of nft\r\n        uint256 timestamp; //timestamp of transaction\r\n    }\r\n\r\n    Transaction[] public transactions;\r\n\r\n    // Function to add a new transaction\r\n    function addTransaction(\r\n        address payable _receiver_addr,\r\n        uint256 _asset_uid,\r\n        uint256 _receiver,\r\n        uint256 _sender,\r\n        string memory _sender_nme,\r\n        string memory _receiver_nme\r\n    ) public payable {\r\n        // Ensure the sender has enough Ether to cover the net amount\r\n        require(\r\n            msg.sender.balance >= msg.value,\r\n            \"Insufficient balance to cover net amount\"\r\n        );\r\n\r\n        // Transfer the net amount to the receiver\r\n        _receiver_addr.transfer(msg.value);\r\n\r\n        // Record the transaction\r\n        Transaction memory newTransaction = Transaction({\r\n            sender_addr: msg.sender,\r\n            receiver_addr: _receiver_addr,\r\n            sender: _sender,\r\n            receiver: _receiver,\r\n            sender_nme: _sender_nme,\r\n            receiver_nme: _receiver_nme,\r\n            amount: msg.value,\r\n            asset_uid: _asset_uid,\r\n            timestamp: block.timestamp\r\n        });\r\n        transactions.push(newTransaction);\r\n    }\r\n\r\n    // Function to get the number of transactions\r\n    function getTransactionCount() public view returns (uint256) {\r\n        return transactions.length;\r\n    }\r\n\r\n    function getTransactions() public view returns (Transaction[] memory) {\r\n        return transactions;\r\n    }\r\n\r\n    // Function to get transaction details by index\r\n    function getTransactionByIndex(\r\n        uint256 index\r\n    ) public view returns (Transaction memory) {\r\n        Transaction memory t = Transaction(address(0), address(0), 0, 0, \"\", \"\", 0, 0, 0);\r\n\r\n        if (\r\n            (transactions.length == 0) ||\r\n            (index > transactions.length) ||\r\n            (index < 0)\r\n        ) {\r\n            // No transactions exist, return a message\r\n            return t;\r\n        }\r\n\r\n        return transactions[index];\r\n    }\r\n\r\n    // Function to get all transactions involving a specific wallet address\r\n    function getTransactionsByWallet(\r\n        address wallet\r\n    ) public view returns (Transaction[] memory) {\r\n        uint256 count = 0;\r\n        uint256 length = transactions.length;\r\n\r\n        // Count the number of relevant transactions involving the specified wallet\r\n        for (uint256 i = 0; i < length; i++) {\r\n            if (\r\n                transactions[i].sender_addr == wallet ||\r\n                transactions[i].receiver_addr == wallet\r\n            ) {\r\n                count++;\r\n            }\r\n        }\r\n\r\n        // Create an array to hold the relevant transactions\r\n        Transaction[] memory result = new Transaction[](count);\r\n        uint256 currentIndex = 0;\r\n\r\n        // Populate the result array with relevant transactions\r\n        for (uint256 i = 0; i < length; i++) {\r\n            if (\r\n                transactions[i].sender_addr == wallet ||\r\n                transactions[i].receiver_addr == wallet\r\n            ) {\r\n                result[currentIndex] = transactions[i];\r\n                currentIndex++;\r\n            }\r\n        }\r\n\r\n        return result;\r\n    }\r\n}\r\n",
  "sourcePath": "C:\\Users\\thari\\Desktop\\Swinburne University\\Swinburne University Classes\\BA-CS\\Semester 4\\COS30049 Computing Technology Innovation Project\\innoproj\\BackEnd\\contracts\\transactionStorage.sol",
  "compiler": {
    "name": "solc",
    "version": "0.8.19+commit.7dd6d404.Emscripten.clang"
  },
  "schemaVersion": "3.4.16",
  "updatedAt": "2023-10-14T23:55:34.052Z",
  "networkType": "ethereum",
  "devdoc": {
    "kind": "dev",
    "methods": {},
    "version": 1
  },
  "userdoc": {
    "kind": "user",
    "methods": {},
    "version": 1
  }
}