{
  "contractName": "TransactionStorage",
  "abi": [
    {
      "inputs": [
        {
          "internalType": "uint256",
          "name": "",
          "type": "uint256"
        }
      ],
      "name": "transactions",
      "outputs": [
        {
          "internalType": "address",
          "name": "sender",
          "type": "address"
        },
        {
          "internalType": "address",
          "name": "receiver",
          "type": "address"
        },
        {
          "internalType": "uint256",
          "name": "amount",
          "type": "uint256"
        },
        {
          "internalType": "uint256",
          "name": "asset_uid",
          "type": "uint256"
        },
        {
          "internalType": "uint256",
          "name": "timestamp",
          "type": "uint256"
        }
      ],
      "stateMutability": "view",
      "type": "function",
      "constant": true
    },
    {
      "inputs": [
        {
          "internalType": "address payable",
          "name": "_receiver",
          "type": "address"
        },
        {
          "internalType": "uint256",
          "name": "_amount",
          "type": "uint256"
        },
        {
          "internalType": "uint256",
          "name": "_asset_uid",
          "type": "uint256"
        }
      ],
      "name": "addTransaction",
      "outputs": [],
      "stateMutability": "payable",
      "type": "function",
      "payable": true
    },
    {
      "inputs": [],
      "name": "getTransactionCount",
      "outputs": [
        {
          "internalType": "uint256",
          "name": "",
          "type": "uint256"
        }
      ],
      "stateMutability": "view",
      "type": "function",
      "constant": true
    },
    {
      "inputs": [],
      "name": "getTransactions",
      "outputs": [
        {
          "components": [
            {
              "internalType": "address",
              "name": "sender",
              "type": "address"
            },
            {
              "internalType": "address",
              "name": "receiver",
              "type": "address"
            },
            {
              "internalType": "uint256",
              "name": "amount",
              "type": "uint256"
            },
            {
              "internalType": "uint256",
              "name": "asset_uid",
              "type": "uint256"
            },
            {
              "internalType": "uint256",
              "name": "timestamp",
              "type": "uint256"
            }
          ],
          "internalType": "struct TransactionStorage.Transaction[]",
          "name": "",
          "type": "tuple[]"
        }
      ],
      "stateMutability": "view",
      "type": "function",
      "constant": true
    },
    {
      "inputs": [
        {
          "internalType": "uint256",
          "name": "index",
          "type": "uint256"
        }
      ],
      "name": "getTransactionByIndex",
      "outputs": [
        {
          "components": [
            {
              "internalType": "address",
              "name": "sender",
              "type": "address"
            },
            {
              "internalType": "address",
              "name": "receiver",
              "type": "address"
            },
            {
              "internalType": "uint256",
              "name": "amount",
              "type": "uint256"
            },
            {
              "internalType": "uint256",
              "name": "asset_uid",
              "type": "uint256"
            },
            {
              "internalType": "uint256",
              "name": "timestamp",
              "type": "uint256"
            }
          ],
          "internalType": "struct TransactionStorage.Transaction",
          "name": "",
          "type": "tuple"
        }
      ],
      "stateMutability": "view",
      "type": "function",
      "constant": true
    },
    {
      "inputs": [
        {
          "internalType": "address",
          "name": "wallet",
          "type": "address"
        }
      ],
      "name": "getTransactionsByWallet",
      "outputs": [
        {
          "components": [
            {
              "internalType": "address",
              "name": "sender",
              "type": "address"
            },
            {
              "internalType": "address",
              "name": "receiver",
              "type": "address"
            },
            {
              "internalType": "uint256",
              "name": "amount",
              "type": "uint256"
            },
            {
              "internalType": "uint256",
              "name": "asset_uid",
              "type": "uint256"
            },
            {
              "internalType": "uint256",
              "name": "timestamp",
              "type": "uint256"
            }
          ],
          "internalType": "struct TransactionStorage.Transaction[]",
          "name": "",
          "type": "tuple[]"
        }
      ],
      "stateMutability": "view",
      "type": "function",
      "constant": true
    }
  ],
  "bytecode": "0x608060405234801561001057600080fd5b5061106b806100206000396000f3fe6080604052600436106100555760003560e01c80632e7700f01461005a57806383920e9014610085578063869152e7146100b05780639ace38c2146100ed578063d5aaa09c1461012e578063efbc54691461016b575b600080fd5b34801561006657600080fd5b5061006f610187565b60405161007c9190610aec565b60405180910390f35b34801561009157600080fd5b5061009a610193565b6040516100a79190610c6e565b60405180910390f35b3480156100bc57600080fd5b506100d760048036038101906100d29190610cc1565b6102bc565b6040516100e49190610d56565b60405180910390f35b3480156100f957600080fd5b50610114600480360381019061010f9190610cc1565b610450565b604051610125959493929190610d80565b60405180910390f35b34801561013a57600080fd5b5061015560048036038101906101509190610dff565b6104d6565b6040516101629190610c6e565b60405180910390f35b61018560048036038101906101809190610e6a565b6108a0565b005b60008080549050905090565b60606000805480602002602001604051908101604052809291908181526020016000905b828210156102b357838290600052602060002090600502016040518060a00160405290816000820160009054906101000a900473ffffffffffffffffffffffffffffffffffffffff1673ffffffffffffffffffffffffffffffffffffffff1673ffffffffffffffffffffffffffffffffffffffff1681526020016001820160009054906101000a900473ffffffffffffffffffffffffffffffffffffffff1673ffffffffffffffffffffffffffffffffffffffff1673ffffffffffffffffffffffffffffffffffffffff1681526020016002820154815260200160038201548152602001600482015481525050815260200190600101906101b7565b50505050905090565b6102c4610a78565b60006040518060a00160405280600073ffffffffffffffffffffffffffffffffffffffff168152602001600073ffffffffffffffffffffffffffffffffffffffff168152602001600081526020016000815260200160008152509050600080805490501480610337575060008054905083115b806103425750600083105b15610350578091505061044b565b6000838154811061036457610363610ebd565b5b90600052602060002090600502016040518060a00160405290816000820160009054906101000a900473ffffffffffffffffffffffffffffffffffffffff1673ffffffffffffffffffffffffffffffffffffffff1673ffffffffffffffffffffffffffffffffffffffff1681526020016001820160009054906101000a900473ffffffffffffffffffffffffffffffffffffffff1673ffffffffffffffffffffffffffffffffffffffff1673ffffffffffffffffffffffffffffffffffffffff16815260200160028201548152602001600382015481526020016004820154815250509150505b919050565b6000818154811061046057600080fd5b90600052602060002090600502016000915090508060000160009054906101000a900473ffffffffffffffffffffffffffffffffffffffff16908060010160009054906101000a900473ffffffffffffffffffffffffffffffffffffffff16908060020154908060030154908060040154905085565b60606000808080549050905060005b81811015610603578473ffffffffffffffffffffffffffffffffffffffff166000828154811061051857610517610ebd565b5b906000526020600020906005020160000160009054906101000a900473ffffffffffffffffffffffffffffffffffffffff1673ffffffffffffffffffffffffffffffffffffffff1614806105dc57508473ffffffffffffffffffffffffffffffffffffffff166000828154811061059257610591610ebd565b5b906000526020600020906005020160010160009054906101000a900473ffffffffffffffffffffffffffffffffffffffff1673ffffffffffffffffffffffffffffffffffffffff16145b156105f05782806105ec90610f1b565b9350505b80806105fb90610f1b565b9150506104e5565b5060008267ffffffffffffffff8111156106205761061f610f63565b5b60405190808252806020026020018201604052801561065957816020015b610646610a78565b81526020019060019003908161063e5790505b5090506000805b83811015610893578673ffffffffffffffffffffffffffffffffffffffff166000828154811061069357610692610ebd565b5b906000526020600020906005020160000160009054906101000a900473ffffffffffffffffffffffffffffffffffffffff1673ffffffffffffffffffffffffffffffffffffffff16148061075757508673ffffffffffffffffffffffffffffffffffffffff166000828154811061070d5761070c610ebd565b5b906000526020600020906005020160010160009054906101000a900473ffffffffffffffffffffffffffffffffffffffff1673ffffffffffffffffffffffffffffffffffffffff16145b1561088057600081815481106107705761076f610ebd565b5b90600052602060002090600502016040518060a00160405290816000820160009054906101000a900473ffffffffffffffffffffffffffffffffffffffff1673ffffffffffffffffffffffffffffffffffffffff1673ffffffffffffffffffffffffffffffffffffffff1681526020016001820160009054906101000a900473ffffffffffffffffffffffffffffffffffffffff1673ffffffffffffffffffffffffffffffffffffffff1673ffffffffffffffffffffffffffffffffffffffff168152602001600282015481526020016003820154815260200160048201548152505083838151811061086657610865610ebd565b5b6020026020010181905250818061087c90610f1b565b9250505b808061088b90610f1b565b915050610660565b5081945050505050919050565b813373ffffffffffffffffffffffffffffffffffffffff163110156108fa576040517f08c379a00000000000000000000000000000000000000000000000000000000081526004016108f190611015565b60405180910390fd5b8273ffffffffffffffffffffffffffffffffffffffff166108fc839081150290604051600060405180830381858888f19350505050158015610940573d6000803e3d6000fd5b5060006040518060a001604052803373ffffffffffffffffffffffffffffffffffffffff1681526020018573ffffffffffffffffffffffffffffffffffffffff168152602001848152602001838152602001428152509050600081908060018154018082558091505060019003906000526020600020906005020160009091909190915060008201518160000160006101000a81548173ffffffffffffffffffffffffffffffffffffffff021916908373ffffffffffffffffffffffffffffffffffffffff16021790555060208201518160010160006101000a81548173ffffffffffffffffffffffffffffffffffffffff021916908373ffffffffffffffffffffffffffffffffffffffff160217905550604082015181600201556060820151816003015560808201518160040155505050505050565b6040518060a00160405280600073ffffffffffffffffffffffffffffffffffffffff168152602001600073ffffffffffffffffffffffffffffffffffffffff1681526020016000815260200160008152602001600081525090565b6000819050919050565b610ae681610ad3565b82525050565b6000602082019050610b016000830184610add565b92915050565b600081519050919050565b600082825260208201905092915050565b6000819050602082019050919050565b600073ffffffffffffffffffffffffffffffffffffffff82169050919050565b6000610b5e82610b33565b9050919050565b610b6e81610b53565b82525050565b610b7d81610ad3565b82525050565b60a082016000820151610b996000850182610b65565b506020820151610bac6020850182610b65565b506040820151610bbf6040850182610b74565b506060820151610bd26060850182610b74565b506080820151610be56080850182610b74565b50505050565b6000610bf78383610b83565b60a08301905092915050565b6000602082019050919050565b6000610c1b82610b07565b610c258185610b12565b9350610c3083610b23565b8060005b83811015610c61578151610c488882610beb565b9750610c5383610c03565b925050600181019050610c34565b5085935050505092915050565b60006020820190508181036000830152610c888184610c10565b905092915050565b600080fd5b610c9e81610ad3565b8114610ca957600080fd5b50565b600081359050610cbb81610c95565b92915050565b600060208284031215610cd757610cd6610c90565b5b6000610ce584828501610cac565b91505092915050565b60a082016000820151610d046000850182610b65565b506020820151610d176020850182610b65565b506040820151610d2a6040850182610b74565b506060820151610d3d6060850182610b74565b506080820151610d506080850182610b74565b50505050565b600060a082019050610d6b6000830184610cee565b92915050565b610d7a81610b53565b82525050565b600060a082019050610d956000830188610d71565b610da26020830187610d71565b610daf6040830186610add565b610dbc6060830185610add565b610dc96080830184610add565b9695505050505050565b610ddc81610b53565b8114610de757600080fd5b50565b600081359050610df981610dd3565b92915050565b600060208284031215610e1557610e14610c90565b5b6000610e2384828501610dea565b91505092915050565b6000610e3782610b33565b9050919050565b610e4781610e2c565b8114610e5257600080fd5b50565b600081359050610e6481610e3e565b92915050565b600080600060608486031215610e8357610e82610c90565b5b6000610e9186828701610e55565b9350506020610ea286828701610cac565b9250506040610eb386828701610cac565b9150509250925092565b7f4e487b7100000000000000000000000000000000000000000000000000000000600052603260045260246000fd5b7f4e487b7100000000000000000000000000000000000000000000000000000000600052601160045260246000fd5b6000610f2682610ad3565b91507fffffffffffffffffffffffffffffffffffffffffffffffffffffffffffffffff8203610f5857610f57610eec565b5b600182019050919050565b7f4e487b7100000000000000000000000000000000000000000000000000000000600052604160045260246000fd5b600082825260208201905092915050565b7f496e73756666696369656e742062616c616e636520746f20636f766572206e6560008201527f7420616d6f756e74000000000000000000000000000000000000000000000000602082015250565b6000610fff602883610f92565b915061100a82610fa3565b604082019050919050565b6000602082019050818103600083015261102e81610ff2565b905091905056fea264697066735822122047c8e17244ca44867442ff039e0952153d3e169d0d9466745944ad39268610cd64736f6c63430008130033",
  "immutableReferences": {},
  "source": "// SPDX-License-Identifier: MIT\r\npragma solidity ^0.8.19;\r\n\r\ncontract TransactionStorage {\r\n    struct Transaction {\r\n        address sender; //buyer wallet address\r\n        address receiver; //seller wallet address\r\n        uint256 amount; //price to buy nft\r\n        uint256 asset_uid; //unique identifer of nft\r\n        uint256 timestamp; //timestamp of transaction\r\n    }\r\n\r\n    Transaction[] public transactions;\r\n\r\n    // Function to add a new transaction\r\n    function addTransaction(\r\n        address payable _receiver,\r\n        uint256 _amount,\r\n        uint256 _asset_uid\r\n    ) public payable {\r\n        // Ensure the sender has enough Ether to cover the net amount\r\n        require(\r\n            msg.sender.balance >= _amount,\r\n            \"Insufficient balance to cover net amount\"\r\n        );\r\n\r\n        // Transfer the net amount to the receiver\r\n        _receiver.transfer(_amount);\r\n\r\n        // Record the transaction\r\n        Transaction memory newTransaction = Transaction({\r\n            sender: msg.sender,\r\n            receiver: _receiver,\r\n            amount: _amount,\r\n            asset_uid: _asset_uid,\r\n            timestamp: block.timestamp\r\n        });\r\n        transactions.push(newTransaction);\r\n    }\r\n\r\n    // Function to get the number of transactions\r\n    function getTransactionCount() public view returns (uint256) {\r\n        return transactions.length;\r\n    }\r\n\r\n    function getTransactions() public view returns (Transaction[] memory) {\r\n        return transactions;\r\n    }\r\n\r\n    // Function to get transaction details by index\r\n    function getTransactionByIndex(\r\n        uint256 index\r\n    ) public view returns (Transaction memory) {\r\n        Transaction memory t = Transaction(address(0), address(0), 0, 0, 0);\r\n\r\n        if (\r\n            (transactions.length == 0) ||\r\n            (index > transactions.length) ||\r\n            (index < 0)\r\n        ) {\r\n            // No transactions exist, return a message\r\n            return t;\r\n        }\r\n\r\n        return transactions[index];\r\n    }\r\n\r\n    // Function to get all transactions involving a specific wallet address\r\n    function getTransactionsByWallet(\r\n        address wallet\r\n    ) public view returns (Transaction[] memory) {\r\n        uint256 count = 0;\r\n        uint256 length = transactions.length;\r\n\r\n        // Count the number of relevant transactions involving the specified wallet\r\n        for (uint256 i = 0; i < length; i++) {\r\n            if (\r\n                transactions[i].sender == wallet ||\r\n                transactions[i].receiver == wallet\r\n            ) {\r\n                count++;\r\n            }\r\n        }\r\n\r\n        // Create an array to hold the relevant transactions\r\n        Transaction[] memory result = new Transaction[](count);\r\n        uint256 currentIndex = 0;\r\n\r\n        // Populate the result array with relevant transactions\r\n        for (uint256 i = 0; i < length; i++) {\r\n            if (\r\n                transactions[i].sender == wallet ||\r\n                transactions[i].receiver == wallet\r\n            ) {\r\n                result[currentIndex] = transactions[i];\r\n                currentIndex++;\r\n            }\r\n        }\r\n\r\n        return result;\r\n    }\r\n}\r\n",
  "sourcePath": "C:\\Users\\thari\\Desktop\\Swinburne University\\Swinburne University Classes\\BA-CS\\Semester 4\\COS30049 Computing Technology Innovation Project\\innoproj\\BackEnd\\contracts\\transactionStorage.sol",
  "compiler": {
    "name": "solc",
    "version": "0.8.19+commit.7dd6d404.Emscripten.clang"
  },
  "schemaVersion": "3.4.16",
  "updatedAt": "2023-10-11T05:37:58.863Z",
  "networkType": "ethereum",
  "devdoc": {
    "kind": "dev",
    "methods": {},
    "version": 1
  },
  "userdoc": {
    "kind": "user",
    "methods": {},
    "version": 1
  }
}