{
  "contractName": "TransactionStorage",
  "abi": [
    {
      "inputs": [
        {
          "internalType": "uint256",
          "name": "",
          "type": "uint256"
        }
      ],
      "name": "transactions",
      "outputs": [
        {
          "internalType": "address",
          "name": "sender",
          "type": "address"
        },
        {
          "internalType": "address",
          "name": "receiver",
          "type": "address"
        },
        {
          "internalType": "uint256",
          "name": "amount",
          "type": "uint256"
        },
        {
          "internalType": "uint256",
          "name": "asset_uid",
          "type": "uint256"
        },
        {
          "internalType": "uint256",
          "name": "timestamp",
          "type": "uint256"
        },
        {
          "internalType": "uint256",
          "name": "gasCharge",
          "type": "uint256"
        }
      ],
      "stateMutability": "view",
      "type": "function",
      "constant": true
    },
    {
      "inputs": [
        {
          "internalType": "address payable",
          "name": "_receiver",
          "type": "address"
        },
        {
          "internalType": "uint256",
          "name": "_amount",
          "type": "uint256"
        },
        {
          "internalType": "uint256",
          "name": "_asset_uid",
          "type": "uint256"
        }
      ],
      "name": "addTransaction",
      "outputs": [],
      "stateMutability": "payable",
      "type": "function",
      "payable": true
    },
    {
      "inputs": [],
      "name": "getTransactionCount",
      "outputs": [
        {
          "internalType": "uint256",
          "name": "",
          "type": "uint256"
        }
      ],
      "stateMutability": "view",
      "type": "function",
      "constant": true
    },
    {
      "inputs": [],
      "name": "getTransactions",
      "outputs": [
        {
          "components": [
            {
              "internalType": "address",
              "name": "sender",
              "type": "address"
            },
            {
              "internalType": "address",
              "name": "receiver",
              "type": "address"
            },
            {
              "internalType": "uint256",
              "name": "amount",
              "type": "uint256"
            },
            {
              "internalType": "uint256",
              "name": "asset_uid",
              "type": "uint256"
            },
            {
              "internalType": "uint256",
              "name": "timestamp",
              "type": "uint256"
            },
            {
              "internalType": "uint256",
              "name": "gasCharge",
              "type": "uint256"
            }
          ],
          "internalType": "struct TransactionStorage.Transaction[]",
          "name": "",
          "type": "tuple[]"
        }
      ],
      "stateMutability": "view",
      "type": "function",
      "constant": true
    },
    {
      "inputs": [
        {
          "internalType": "uint256",
          "name": "index",
          "type": "uint256"
        }
      ],
      "name": "getTransactionByIndex",
      "outputs": [
        {
          "components": [
            {
              "internalType": "address",
              "name": "sender",
              "type": "address"
            },
            {
              "internalType": "address",
              "name": "receiver",
              "type": "address"
            },
            {
              "internalType": "uint256",
              "name": "amount",
              "type": "uint256"
            },
            {
              "internalType": "uint256",
              "name": "asset_uid",
              "type": "uint256"
            },
            {
              "internalType": "uint256",
              "name": "timestamp",
              "type": "uint256"
            },
            {
              "internalType": "uint256",
              "name": "gasCharge",
              "type": "uint256"
            }
          ],
          "internalType": "struct TransactionStorage.Transaction",
          "name": "",
          "type": "tuple"
        }
      ],
      "stateMutability": "view",
      "type": "function",
      "constant": true
    },
    {
      "inputs": [
        {
          "internalType": "address",
          "name": "wallet",
          "type": "address"
        }
      ],
      "name": "getTransactionsByWallet",
      "outputs": [
        {
          "components": [
            {
              "internalType": "address",
              "name": "sender",
              "type": "address"
            },
            {
              "internalType": "address",
              "name": "receiver",
              "type": "address"
            },
            {
              "internalType": "uint256",
              "name": "amount",
              "type": "uint256"
            },
            {
              "internalType": "uint256",
              "name": "asset_uid",
              "type": "uint256"
            },
            {
              "internalType": "uint256",
              "name": "timestamp",
              "type": "uint256"
            },
            {
              "internalType": "uint256",
              "name": "gasCharge",
              "type": "uint256"
            }
          ],
          "internalType": "struct TransactionStorage.Transaction[]",
          "name": "",
          "type": "tuple[]"
        }
      ],
      "stateMutability": "view",
      "type": "function",
      "constant": true
    }
  ],
  "bytecode": "0x608060405234801561001057600080fd5b50611187806100206000396000f3fe6080604052600436106100555760003560e01c80632e7700f01461005a57806383920e9014610085578063869152e7146100b05780639ace38c2146100ed578063d5aaa09c1461012f578063efbc54691461016c575b600080fd5b34801561006657600080fd5b5061006f610188565b60405161007c9190610b5e565b60405180910390f35b34801561009157600080fd5b5061009a610194565b6040516100a79190610cf3565b60405180910390f35b3480156100bc57600080fd5b506100d760048036038101906100d29190610d46565b6102c7565b6040516100e49190610dee565b60405180910390f35b3480156100f957600080fd5b50610114600480360381019061010f9190610d46565b610479565b60405161012696959493929190610e18565b60405180910390f35b34801561013b57600080fd5b5061015660048036038101906101519190610ea5565b610505565b6040516101639190610cf3565b60405180910390f35b61018660048036038101906101819190610f10565b6108d9565b005b60008080549050905090565b60606000805480602002602001604051908101604052809291908181526020016000905b828210156102be57838290600052602060002090600602016040518060c00160405290816000820160009054906101000a900473ffffffffffffffffffffffffffffffffffffffff1673ffffffffffffffffffffffffffffffffffffffff1673ffffffffffffffffffffffffffffffffffffffff1681526020016001820160009054906101000a900473ffffffffffffffffffffffffffffffffffffffff1673ffffffffffffffffffffffffffffffffffffffff1673ffffffffffffffffffffffffffffffffffffffff168152602001600282015481526020016003820154815260200160048201548152602001600582015481525050815260200190600101906101b8565b50505050905090565b6102cf610ae3565b60006040518060c00160405280600073ffffffffffffffffffffffffffffffffffffffff168152602001600073ffffffffffffffffffffffffffffffffffffffff1681526020016000815260200160008152602001600081526020016000815250905060008080549050036103475780915050610474565b60008054905083111561035d5780915050610474565b600083101561036f5780915050610474565b6000838154811061038357610382610f63565b5b90600052602060002090600602016040518060c00160405290816000820160009054906101000a900473ffffffffffffffffffffffffffffffffffffffff1673ffffffffffffffffffffffffffffffffffffffff1673ffffffffffffffffffffffffffffffffffffffff1681526020016001820160009054906101000a900473ffffffffffffffffffffffffffffffffffffffff1673ffffffffffffffffffffffffffffffffffffffff1673ffffffffffffffffffffffffffffffffffffffff1681526020016002820154815260200160038201548152602001600482015481526020016005820154815250509150505b919050565b6000818154811061048957600080fd5b90600052602060002090600602016000915090508060000160009054906101000a900473ffffffffffffffffffffffffffffffffffffffff16908060010160009054906101000a900473ffffffffffffffffffffffffffffffffffffffff16908060020154908060030154908060040154908060050154905086565b60606000808080549050905060005b81811015610632578473ffffffffffffffffffffffffffffffffffffffff166000828154811061054757610546610f63565b5b906000526020600020906006020160000160009054906101000a900473ffffffffffffffffffffffffffffffffffffffff1673ffffffffffffffffffffffffffffffffffffffff16148061060b57508473ffffffffffffffffffffffffffffffffffffffff16600082815481106105c1576105c0610f63565b5b906000526020600020906006020160010160009054906101000a900473ffffffffffffffffffffffffffffffffffffffff1673ffffffffffffffffffffffffffffffffffffffff16145b1561061f57828061061b90610fc1565b9350505b808061062a90610fc1565b915050610514565b5060008267ffffffffffffffff81111561064f5761064e611009565b5b60405190808252806020026020018201604052801561068857816020015b610675610ae3565b81526020019060019003908161066d5790505b5090506000805b838110156108cc578673ffffffffffffffffffffffffffffffffffffffff16600082815481106106c2576106c1610f63565b5b906000526020600020906006020160000160009054906101000a900473ffffffffffffffffffffffffffffffffffffffff1673ffffffffffffffffffffffffffffffffffffffff16148061078657508673ffffffffffffffffffffffffffffffffffffffff166000828154811061073c5761073b610f63565b5b906000526020600020906006020160010160009054906101000a900473ffffffffffffffffffffffffffffffffffffffff1673ffffffffffffffffffffffffffffffffffffffff16145b156108b9576000818154811061079f5761079e610f63565b5b90600052602060002090600602016040518060c00160405290816000820160009054906101000a900473ffffffffffffffffffffffffffffffffffffffff1673ffffffffffffffffffffffffffffffffffffffff1673ffffffffffffffffffffffffffffffffffffffff1681526020016001820160009054906101000a900473ffffffffffffffffffffffffffffffffffffffff1673ffffffffffffffffffffffffffffffffffffffff1673ffffffffffffffffffffffffffffffffffffffff16815260200160028201548152602001600382015481526020016004820154815260200160058201548152505083838151811061089f5761089e610f63565b5b602002602001018190525081806108b590610fc1565b9250505b80806108c490610fc1565b91505061068f565b5081945050505050919050565b60005a3a6108e79190611038565b9050600081846108f7919061107a565b9050803373ffffffffffffffffffffffffffffffffffffffff16311015610953576040517f08c379a000000000000000000000000000000000000000000000000000000000815260040161094a90611131565b60405180910390fd5b8473ffffffffffffffffffffffffffffffffffffffff166108fc829081150290604051600060405180830381858888f19350505050158015610999573d6000803e3d6000fd5b5060006040518060c001604052803373ffffffffffffffffffffffffffffffffffffffff1681526020018773ffffffffffffffffffffffffffffffffffffffff168152602001868152602001858152602001428152602001848152509050600081908060018154018082558091505060019003906000526020600020906006020160009091909190915060008201518160000160006101000a81548173ffffffffffffffffffffffffffffffffffffffff021916908373ffffffffffffffffffffffffffffffffffffffff16021790555060208201518160010160006101000a81548173ffffffffffffffffffffffffffffffffffffffff021916908373ffffffffffffffffffffffffffffffffffffffff16021790555060408201518160020155606082015181600301556080820151816004015560a082015181600501555050505050505050565b6040518060c00160405280600073ffffffffffffffffffffffffffffffffffffffff168152602001600073ffffffffffffffffffffffffffffffffffffffff168152602001600081526020016000815260200160008152602001600081525090565b6000819050919050565b610b5881610b45565b82525050565b6000602082019050610b736000830184610b4f565b92915050565b600081519050919050565b600082825260208201905092915050565b6000819050602082019050919050565b600073ffffffffffffffffffffffffffffffffffffffff82169050919050565b6000610bd082610ba5565b9050919050565b610be081610bc5565b82525050565b610bef81610b45565b82525050565b60c082016000820151610c0b6000850182610bd7565b506020820151610c1e6020850182610bd7565b506040820151610c316040850182610be6565b506060820151610c446060850182610be6565b506080820151610c576080850182610be6565b5060a0820151610c6a60a0850182610be6565b50505050565b6000610c7c8383610bf5565b60c08301905092915050565b6000602082019050919050565b6000610ca082610b79565b610caa8185610b84565b9350610cb583610b95565b8060005b83811015610ce6578151610ccd8882610c70565b9750610cd883610c88565b925050600181019050610cb9565b5085935050505092915050565b60006020820190508181036000830152610d0d8184610c95565b905092915050565b600080fd5b610d2381610b45565b8114610d2e57600080fd5b50565b600081359050610d4081610d1a565b92915050565b600060208284031215610d5c57610d5b610d15565b5b6000610d6a84828501610d31565b91505092915050565b60c082016000820151610d896000850182610bd7565b506020820151610d9c6020850182610bd7565b506040820151610daf6040850182610be6565b506060820151610dc26060850182610be6565b506080820151610dd56080850182610be6565b5060a0820151610de860a0850182610be6565b50505050565b600060c082019050610e036000830184610d73565b92915050565b610e1281610bc5565b82525050565b600060c082019050610e2d6000830189610e09565b610e3a6020830188610e09565b610e476040830187610b4f565b610e546060830186610b4f565b610e616080830185610b4f565b610e6e60a0830184610b4f565b979650505050505050565b610e8281610bc5565b8114610e8d57600080fd5b50565b600081359050610e9f81610e79565b92915050565b600060208284031215610ebb57610eba610d15565b5b6000610ec984828501610e90565b91505092915050565b6000610edd82610ba5565b9050919050565b610eed81610ed2565b8114610ef857600080fd5b50565b600081359050610f0a81610ee4565b92915050565b600080600060608486031215610f2957610f28610d15565b5b6000610f3786828701610efb565b9350506020610f4886828701610d31565b9250506040610f5986828701610d31565b9150509250925092565b7f4e487b7100000000000000000000000000000000000000000000000000000000600052603260045260246000fd5b7f4e487b7100000000000000000000000000000000000000000000000000000000600052601160045260246000fd5b6000610fcc82610b45565b91507fffffffffffffffffffffffffffffffffffffffffffffffffffffffffffffffff8203610ffe57610ffd610f92565b5b600182019050919050565b7f4e487b7100000000000000000000000000000000000000000000000000000000600052604160045260246000fd5b600061104382610b45565b915061104e83610b45565b925082820261105c81610b45565b9150828204841483151761107357611072610f92565b5b5092915050565b600061108582610b45565b915061109083610b45565b92508282039050818111156110a8576110a7610f92565b5b92915050565b600082825260208201905092915050565b7f496e73756666696369656e742062616c616e636520746f20636f766572206e6560008201527f7420616d6f756e74000000000000000000000000000000000000000000000000602082015250565b600061111b6028836110ae565b9150611126826110bf565b604082019050919050565b6000602082019050818103600083015261114a8161110e565b905091905056fea264697066735822122076594aeb97a8d3a740e387d3702d467008713ebf9e322b591b208515c50a53d764736f6c63430008130033",
  "immutableReferences": {},
  "source": "// SPDX-License-Identifier: MIT\r\npragma solidity ^0.8.19;\r\n\r\ncontract TransactionStorage {\r\n    struct Transaction {\r\n        address sender;\r\n        address receiver;\r\n        uint256 amount;\r\n        uint256 asset_uid;\r\n        uint256 timestamp;\r\n        uint256 gasCharge;\r\n    }\r\n\r\n    Transaction[] public transactions;\r\n\r\n    // Function to add a new transaction\r\n    function addTransaction(\r\n        address payable _receiver,\r\n        uint256 _amount,\r\n        uint256 _asset_uid\r\n    ) public payable {\r\n        // Calculate the gas cost\r\n        uint256 gasCost = tx.gasprice * gasleft();\r\n\r\n        // Calculate the net amount to be transferred\r\n        uint256 netAmount = _amount - gasCost;\r\n\r\n        // Ensure the sender has enough Ether to cover the net amount\r\n        require(\r\n            msg.sender.balance >= netAmount,\r\n            \"Insufficient balance to cover net amount\"\r\n        );\r\n\r\n        // Transfer the net amount to the receiver\r\n        _receiver.transfer(netAmount);\r\n\r\n        // Record the transaction\r\n        Transaction memory newTransaction = Transaction({\r\n            sender: msg.sender,\r\n            receiver: _receiver,\r\n            amount: _amount,\r\n            asset_uid: _asset_uid,\r\n            timestamp: block.timestamp,\r\n            gasCharge: gasCost\r\n        });\r\n        transactions.push(newTransaction);\r\n    }\r\n\r\n    // Function to get the number of transactions\r\n    function getTransactionCount() public view returns (uint256) {\r\n        return transactions.length;\r\n    }\r\n\r\n    function getTransactions() public view returns (Transaction[] memory) {\r\n        return transactions;\r\n    }\r\n\r\n    // Function to get transaction details by index\r\n    function getTransactionByIndex(\r\n        uint256 index\r\n    ) public view returns (Transaction memory) {\r\n        Transaction memory defualt = Transaction(\r\n            address(0),\r\n            address(0),\r\n            0,\r\n            0,\r\n            0,\r\n            0\r\n        );\r\n\r\n        if (transactions.length == 0) {\r\n            // No transactions exist, return a message\r\n            return defualt;\r\n        }\r\n\r\n        if (index > transactions.length) {\r\n            // No transactions exist, return a message\r\n            return defualt;\r\n        }\r\n\r\n        if (index < 0) {\r\n            // No transactions exist, return a message\r\n            return defualt;\r\n        }\r\n\r\n        return transactions[index];\r\n    }\r\n\r\n    // Function to get all transactions involving a specific wallet address\r\n    function getTransactionsByWallet(\r\n        address wallet\r\n    ) public view returns (Transaction[] memory) {\r\n        uint256 count = 0;\r\n        uint256 length = transactions.length;\r\n\r\n        // Count the number of relevant transactions involving the specified wallet\r\n        for (uint256 i = 0; i < length; i++) {\r\n            if (\r\n                transactions[i].sender == wallet ||\r\n                transactions[i].receiver == wallet\r\n            ) {\r\n                count++;\r\n            }\r\n        }\r\n\r\n        // Create an array to hold the relevant transactions\r\n        Transaction[] memory result = new Transaction[](count);\r\n        uint256 currentIndex = 0;\r\n\r\n        // Populate the result array with relevant transactions\r\n        for (uint256 i = 0; i < length; i++) {\r\n            if (\r\n                transactions[i].sender == wallet ||\r\n                transactions[i].receiver == wallet\r\n            ) {\r\n                result[currentIndex] = transactions[i];\r\n                currentIndex++;\r\n            }\r\n        }\r\n\r\n        return result;\r\n    }\r\n}\r\n",
  "sourcePath": "C:\\Users\\thari\\Desktop\\Swinburne University\\Swinburne University Classes\\BA-CS\\Semester 4\\COS30049 Computing Technology Innovation Project\\innoproj\\BackEnd\\contracts\\transactionStorage.sol",
  "compiler": {
    "name": "solc",
    "version": "0.8.19+commit.7dd6d404.Emscripten.clang"
  },
  "schemaVersion": "3.4.16",
  "updatedAt": "2023-10-10T07:54:26.113Z",
  "networkType": "ethereum",
  "devdoc": {
    "kind": "dev",
    "methods": {},
    "version": 1
  },
  "userdoc": {
    "kind": "user",
    "methods": {},
    "version": 1
  }
}