{
  "contractName": "TransactionStorage",
  "abi": [
    {
      "inputs": [
        {
          "internalType": "uint256",
          "name": "",
          "type": "uint256"
        }
      ],
      "name": "transactions",
      "outputs": [
        {
          "internalType": "address",
          "name": "sender",
          "type": "address"
        },
        {
          "internalType": "address",
          "name": "receiver",
          "type": "address"
        },
        {
          "internalType": "uint256",
          "name": "amount",
          "type": "uint256"
        },
        {
          "internalType": "uint256",
          "name": "timestamp",
          "type": "uint256"
        }
      ],
      "stateMutability": "view",
      "type": "function",
      "constant": true
    },
    {
      "inputs": [
        {
          "internalType": "address",
          "name": "_receiver",
          "type": "address"
        },
        {
          "internalType": "uint256",
          "name": "_amount",
          "type": "uint256"
        }
      ],
      "name": "addTransaction",
      "outputs": [],
      "stateMutability": "nonpayable",
      "type": "function"
    },
    {
      "inputs": [],
      "name": "getTransactionCount",
      "outputs": [
        {
          "internalType": "uint256",
          "name": "",
          "type": "uint256"
        }
      ],
      "stateMutability": "view",
      "type": "function",
      "constant": true
    },
    {
      "inputs": [
        {
          "internalType": "uint256",
          "name": "index",
          "type": "uint256"
        }
      ],
      "name": "getTransaction",
      "outputs": [
        {
          "components": [
            {
              "internalType": "address",
              "name": "sender",
              "type": "address"
            },
            {
              "internalType": "address",
              "name": "receiver",
              "type": "address"
            },
            {
              "internalType": "uint256",
              "name": "amount",
              "type": "uint256"
            },
            {
              "internalType": "uint256",
              "name": "timestamp",
              "type": "uint256"
            }
          ],
          "internalType": "struct TransactionStorage.Transaction",
          "name": "",
          "type": "tuple"
        }
      ],
      "stateMutability": "view",
      "type": "function",
      "constant": true
    }
  ],
  "bytecode": "0x608060405234801561001057600080fd5b50610792806100206000396000f3fe608060405234801561001057600080fd5b506004361061004c5760003560e01c80632e7700f01461005157806333ea3dc81461006f57806384a372731461009f5780639ace38c2146100bb575b600080fd5b6100596100ee565b6040516100669190610534565b60405180910390f35b61008960048036038101906100849190610580565b6100fa565b6040516100969190610652565b60405180910390f35b6100b960048036038101906100b49190610699565b610321565b005b6100d560048036038101906100d09190610580565b610447565b6040516100e594939291906106e8565b60405180910390f35b60008080549050905090565b6101026104c7565b6000808054905003610166576040518060800160405280600073ffffffffffffffffffffffffffffffffffffffff168152602001600073ffffffffffffffffffffffffffffffffffffffff168152602001600081526020016000815250905061031c565b6000805490508211156101cb576040518060800160405280600073ffffffffffffffffffffffffffffffffffffffff168152602001600073ffffffffffffffffffffffffffffffffffffffff168152602001600081526020016000815250905061031c565b600082101561022c576040518060800160405280600073ffffffffffffffffffffffffffffffffffffffff168152602001600073ffffffffffffffffffffffffffffffffffffffff168152602001600081526020016000815250905061031c565b600082815481106102405761023f61072d565b5b90600052602060002090600402016040518060800160405290816000820160009054906101000a900473ffffffffffffffffffffffffffffffffffffffff1673ffffffffffffffffffffffffffffffffffffffff1673ffffffffffffffffffffffffffffffffffffffff1681526020016001820160009054906101000a900473ffffffffffffffffffffffffffffffffffffffff1673ffffffffffffffffffffffffffffffffffffffff1673ffffffffffffffffffffffffffffffffffffffff1681526020016002820154815260200160038201548152505090505b919050565b600060405180608001604052803373ffffffffffffffffffffffffffffffffffffffff1681526020018473ffffffffffffffffffffffffffffffffffffffff168152602001838152602001428152509050600081908060018154018082558091505060019003906000526020600020906004020160009091909190915060008201518160000160006101000a81548173ffffffffffffffffffffffffffffffffffffffff021916908373ffffffffffffffffffffffffffffffffffffffff16021790555060208201518160010160006101000a81548173ffffffffffffffffffffffffffffffffffffffff021916908373ffffffffffffffffffffffffffffffffffffffff16021790555060408201518160020155606082015181600301555050505050565b6000818154811061045757600080fd5b90600052602060002090600402016000915090508060000160009054906101000a900473ffffffffffffffffffffffffffffffffffffffff16908060010160009054906101000a900473ffffffffffffffffffffffffffffffffffffffff16908060020154908060030154905084565b6040518060800160405280600073ffffffffffffffffffffffffffffffffffffffff168152602001600073ffffffffffffffffffffffffffffffffffffffff16815260200160008152602001600081525090565b6000819050919050565b61052e8161051b565b82525050565b60006020820190506105496000830184610525565b92915050565b600080fd5b61055d8161051b565b811461056857600080fd5b50565b60008135905061057a81610554565b92915050565b6000602082840312156105965761059561054f565b5b60006105a48482850161056b565b91505092915050565b600073ffffffffffffffffffffffffffffffffffffffff82169050919050565b60006105d8826105ad565b9050919050565b6105e8816105cd565b82525050565b6105f78161051b565b82525050565b60808201600082015161061360008501826105df565b50602082015161062660208501826105df565b50604082015161063960408501826105ee565b50606082015161064c60608501826105ee565b50505050565b600060808201905061066760008301846105fd565b92915050565b610676816105cd565b811461068157600080fd5b50565b6000813590506106938161066d565b92915050565b600080604083850312156106b0576106af61054f565b5b60006106be85828601610684565b92505060206106cf8582860161056b565b9150509250929050565b6106e2816105cd565b82525050565b60006080820190506106fd60008301876106d9565b61070a60208301866106d9565b6107176040830185610525565b6107246060830184610525565b95945050505050565b7f4e487b7100000000000000000000000000000000000000000000000000000000600052603260045260246000fdfea2646970667358221220be890daac44eb80bf4ec732a5603a94c3a0aefc02f79430a6077f42ba700010564736f6c63430008130033",
  "immutableReferences": {},
  "source": "// SPDX-License-Identifier: MIT\r\npragma solidity ^0.8.19;\r\n\r\ncontract TransactionStorage {\r\n    struct Transaction {\r\n        address sender;\r\n        address receiver;\r\n        uint256 amount;\r\n        uint256 timestamp;\r\n    }\r\n\r\n    Transaction[] public transactions;\r\n\r\n    // Function to add a new transaction\r\n    function addTransaction(address _receiver, uint256 _amount) public {\r\n        Transaction memory newTransaction = Transaction({\r\n            sender: msg.sender,\r\n            receiver: _receiver,\r\n            amount: _amount,\r\n            timestamp: block.timestamp\r\n        });\r\n        transactions.push(newTransaction);\r\n    }\r\n\r\n    // Function to get the number of transactions\r\n    function getTransactionCount() public view returns (uint256) {\r\n        return transactions.length;\r\n    }\r\n\r\n    // Function to get transaction details by index\r\n    function getTransaction(\r\n        uint256 index\r\n    ) public view returns (Transaction memory) {\r\n        if (transactions.length == 0) {\r\n            // No transactions exist, return a message\r\n            return Transaction(address(0), address(0), 0, 0);\r\n        }\r\n\r\n        if (index > transactions.length) {\r\n            // No transactions exist, return a message\r\n            return Transaction(address(0), address(0), 0, 0);\r\n        }\r\n\r\n        if (index < 0) {\r\n            // No transactions exist, return a message\r\n            return Transaction(address(0), address(0), 0, 0);\r\n        }\r\n\r\n        return transactions[index];\r\n    }\r\n}\r\n",
  "sourcePath": "C:\\Users\\thari\\Desktop\\Swinburne University\\Swinburne University Classes\\BA-CS\\Semester 4\\COS30049 Computing Technology Innovation Project\\innoproj\\BackEnd\\contracts\\transactionStorage.sol",
  "compiler": {
    "name": "solc",
    "version": "0.8.19+commit.7dd6d404.Emscripten.clang"
  },
  "schemaVersion": "3.4.16",
  "updatedAt": "2023-09-25T07:58:47.578Z",
  "networkType": "ethereum",
  "devdoc": {
    "kind": "dev",
    "methods": {},
    "version": 1
  },
  "userdoc": {
    "kind": "user",
    "methods": {},
    "version": 1
  }
}