{
  "contractName": "TransactionStorage",
  "abi": [
    {
      "inputs": [
        {
          "internalType": "uint256",
          "name": "",
          "type": "uint256"
        }
      ],
      "name": "transactions",
      "outputs": [
        {
          "internalType": "address",
          "name": "sender",
          "type": "address"
        },
        {
          "internalType": "address",
          "name": "receiver",
          "type": "address"
        },
        {
          "internalType": "uint256",
          "name": "amount",
          "type": "uint256"
        },
        {
          "internalType": "uint256",
          "name": "asset_uid",
          "type": "uint256"
        },
        {
          "internalType": "uint256",
          "name": "timestamp",
          "type": "uint256"
        }
      ],
      "stateMutability": "view",
      "type": "function",
      "constant": true
    },
    {
      "inputs": [
        {
          "internalType": "address",
          "name": "_receiver",
          "type": "address"
        },
        {
          "internalType": "uint256",
          "name": "_amount",
          "type": "uint256"
        },
        {
          "internalType": "uint256",
          "name": "_asset_uid",
          "type": "uint256"
        }
      ],
      "name": "addTransaction",
      "outputs": [],
      "stateMutability": "nonpayable",
      "type": "function"
    },
    {
      "inputs": [],
      "name": "getTransactionCount",
      "outputs": [
        {
          "internalType": "uint256",
          "name": "",
          "type": "uint256"
        }
      ],
      "stateMutability": "view",
      "type": "function",
      "constant": true
    },
    {
      "inputs": [
        {
          "internalType": "uint256",
          "name": "index",
          "type": "uint256"
        }
      ],
      "name": "getTransaction",
      "outputs": [
        {
          "components": [
            {
              "internalType": "address",
              "name": "sender",
              "type": "address"
            },
            {
              "internalType": "address",
              "name": "receiver",
              "type": "address"
            },
            {
              "internalType": "uint256",
              "name": "amount",
              "type": "uint256"
            },
            {
              "internalType": "uint256",
              "name": "asset_uid",
              "type": "uint256"
            },
            {
              "internalType": "uint256",
              "name": "timestamp",
              "type": "uint256"
            }
          ],
          "internalType": "struct TransactionStorage.Transaction",
          "name": "",
          "type": "tuple"
        }
      ],
      "stateMutability": "view",
      "type": "function",
      "constant": true
    }
  ],
  "bytecode": "0x608060405234801561001057600080fd5b50610804806100206000396000f3fe608060405234801561001057600080fd5b506004361061004c5760003560e01c80632e7700f01461005157806333ea3dc81461006f5780639ace38c21461009f578063efbc5469146100d3575b600080fd5b6100596100ef565b6040516100669190610572565b60405180910390f35b610089600480360381019061008491906105be565b6100fb565b60405161009691906106a3565b60405180910390f35b6100b960048036038101906100b491906105be565b610341565b6040516100ca9594939291906106cd565b60405180910390f35b6100ed60048036038101906100e8919061074c565b6103c7565b005b60008080549050905090565b6101036104fe565b600080805490500361016e576040518060a00160405280600073ffffffffffffffffffffffffffffffffffffffff168152602001600073ffffffffffffffffffffffffffffffffffffffff16815260200160008152602001600081526020016000815250905061033c565b6000805490508211156101da576040518060a00160405280600073ffffffffffffffffffffffffffffffffffffffff168152602001600073ffffffffffffffffffffffffffffffffffffffff16815260200160008152602001600081526020016000815250905061033c565b6000821015610242576040518060a00160405280600073ffffffffffffffffffffffffffffffffffffffff168152602001600073ffffffffffffffffffffffffffffffffffffffff16815260200160008152602001600081526020016000815250905061033c565b600082815481106102565761025561079f565b5b90600052602060002090600502016040518060a00160405290816000820160009054906101000a900473ffffffffffffffffffffffffffffffffffffffff1673ffffffffffffffffffffffffffffffffffffffff1673ffffffffffffffffffffffffffffffffffffffff1681526020016001820160009054906101000a900473ffffffffffffffffffffffffffffffffffffffff1673ffffffffffffffffffffffffffffffffffffffff1673ffffffffffffffffffffffffffffffffffffffff168152602001600282015481526020016003820154815260200160048201548152505090505b919050565b6000818154811061035157600080fd5b90600052602060002090600502016000915090508060000160009054906101000a900473ffffffffffffffffffffffffffffffffffffffff16908060010160009054906101000a900473ffffffffffffffffffffffffffffffffffffffff16908060020154908060030154908060040154905085565b60006040518060a001604052803373ffffffffffffffffffffffffffffffffffffffff1681526020018573ffffffffffffffffffffffffffffffffffffffff168152602001848152602001838152602001428152509050600081908060018154018082558091505060019003906000526020600020906005020160009091909190915060008201518160000160006101000a81548173ffffffffffffffffffffffffffffffffffffffff021916908373ffffffffffffffffffffffffffffffffffffffff16021790555060208201518160010160006101000a81548173ffffffffffffffffffffffffffffffffffffffff021916908373ffffffffffffffffffffffffffffffffffffffff160217905550604082015181600201556060820151816003015560808201518160040155505050505050565b6040518060a00160405280600073ffffffffffffffffffffffffffffffffffffffff168152602001600073ffffffffffffffffffffffffffffffffffffffff1681526020016000815260200160008152602001600081525090565b6000819050919050565b61056c81610559565b82525050565b60006020820190506105876000830184610563565b92915050565b600080fd5b61059b81610559565b81146105a657600080fd5b50565b6000813590506105b881610592565b92915050565b6000602082840312156105d4576105d361058d565b5b60006105e2848285016105a9565b91505092915050565b600073ffffffffffffffffffffffffffffffffffffffff82169050919050565b6000610616826105eb565b9050919050565b6106268161060b565b82525050565b61063581610559565b82525050565b60a082016000820151610651600085018261061d565b506020820151610664602085018261061d565b506040820151610677604085018261062c565b50606082015161068a606085018261062c565b50608082015161069d608085018261062c565b50505050565b600060a0820190506106b8600083018461063b565b92915050565b6106c78161060b565b82525050565b600060a0820190506106e260008301886106be565b6106ef60208301876106be565b6106fc6040830186610563565b6107096060830185610563565b6107166080830184610563565b9695505050505050565b6107298161060b565b811461073457600080fd5b50565b60008135905061074681610720565b92915050565b6000806000606084860312156107655761076461058d565b5b600061077386828701610737565b9350506020610784868287016105a9565b9250506040610795868287016105a9565b9150509250925092565b7f4e487b7100000000000000000000000000000000000000000000000000000000600052603260045260246000fdfea2646970667358221220659be467802de2eb1297625ad6aae7101bc4fa31d97d4fb030af6218d6513b7d64736f6c63430008130033",
  "immutableReferences": {},
  "source": "// SPDX-License-Identifier: MIT\r\npragma solidity ^0.8.19;\r\n\r\ncontract TransactionStorage {\r\n    struct Transaction {\r\n        address sender;\r\n        address receiver;\r\n        uint256 amount;\r\n        uint256 asset_uid; \r\n        uint256 timestamp;\r\n    }\r\n\r\n    Transaction[] public transactions;\r\n\r\n    // Function to add a new transaction\r\n    function addTransaction(address _receiver, uint256 _amount, uint256 _asset_uid) public {\r\n        Transaction memory newTransaction = Transaction({\r\n            sender: msg.sender,\r\n            receiver: _receiver,\r\n            amount: _amount,\r\n            asset_uid: _asset_uid,\r\n            timestamp: block.timestamp\r\n        });\r\n        transactions.push(newTransaction);\r\n    }\r\n\r\n    // Function to get the number of transactions\r\n    function getTransactionCount() public view returns (uint256) {\r\n        return transactions.length;\r\n    }\r\n\r\n    // Function to get transaction details by index\r\n    function getTransaction(\r\n        uint256 index\r\n    ) public view returns (Transaction memory) {\r\n        if (transactions.length == 0) {\r\n            // No transactions exist, return a message\r\n            return Transaction(address(0), address(0), 0, 0, 0);\r\n        }\r\n\r\n        if (index > transactions.length) {\r\n            // No transactions exist, return a message\r\n            return Transaction(address(0), address(0), 0, 0, 0);\r\n        }\r\n\r\n        if (index < 0) {\r\n            // No transactions exist, return a message\r\n            return Transaction(address(0), address(0), 0, 0, 0);\r\n        }\r\n\r\n        return transactions[index];\r\n    }\r\n}\r\n",
  "sourcePath": "C:\\Users\\thari\\Desktop\\Swinburne University\\Swinburne University Classes\\BA-CS\\Semester 4\\COS30049 Computing Technology Innovation Project\\innoproj\\BackEnd\\contracts\\transactionStorage.sol",
  "compiler": {
    "name": "solc",
    "version": "0.8.19+commit.7dd6d404.Emscripten.clang"
  },
  "schemaVersion": "3.4.16",
  "updatedAt": "2023-10-08T04:57:06.881Z",
  "networkType": "ethereum",
  "devdoc": {
    "kind": "dev",
    "methods": {},
    "version": 1
  },
  "userdoc": {
    "kind": "user",
    "methods": {},
    "version": 1
  }
}