{
  "contractName": "TransactionStorage",
  "abi": [
    {
      "inputs": [
        {
          "internalType": "uint256",
          "name": "",
          "type": "uint256"
        }
      ],
      "name": "transactions",
      "outputs": [
        {
          "internalType": "address",
          "name": "sender",
          "type": "address"
        },
        {
          "internalType": "address",
          "name": "receiver",
          "type": "address"
        },
        {
          "internalType": "uint256",
          "name": "amount",
          "type": "uint256"
        },
        {
          "internalType": "uint256",
          "name": "asset_uid",
          "type": "uint256"
        },
        {
          "internalType": "uint256",
          "name": "timestamp",
          "type": "uint256"
        },
        {
          "internalType": "uint256",
          "name": "gasCharge",
          "type": "uint256"
        }
      ],
      "stateMutability": "view",
      "type": "function"
    },
    {
      "inputs": [
        {
          "internalType": "address payable",
          "name": "_receiver",
          "type": "address"
        },
        {
          "internalType": "uint256",
          "name": "_amount",
          "type": "uint256"
        },
        {
          "internalType": "uint256",
          "name": "_asset_uid",
          "type": "uint256"
        }
      ],
      "name": "addTransaction",
      "outputs": [],
      "stateMutability": "payable",
      "type": "function"
    },
    {
      "inputs": [],
      "name": "getTransactionCount",
      "outputs": [
        {
          "internalType": "uint256",
          "name": "",
          "type": "uint256"
        }
      ],
      "stateMutability": "view",
      "type": "function"
    },
    {
      "inputs": [
        {
          "internalType": "uint256",
          "name": "index",
          "type": "uint256"
        }
      ],
      "name": "getTransaction",
      "outputs": [
        {
          "components": [
            {
              "internalType": "address",
              "name": "sender",
              "type": "address"
            },
            {
              "internalType": "address",
              "name": "receiver",
              "type": "address"
            },
            {
              "internalType": "uint256",
              "name": "amount",
              "type": "uint256"
            },
            {
              "internalType": "uint256",
              "name": "asset_uid",
              "type": "uint256"
            },
            {
              "internalType": "uint256",
              "name": "timestamp",
              "type": "uint256"
            },
            {
              "internalType": "uint256",
              "name": "gasCharge",
              "type": "uint256"
            }
          ],
          "internalType": "struct TransactionStorage.Transaction",
          "name": "",
          "type": "tuple"
        }
      ],
      "stateMutability": "view",
      "type": "function"
    }
  ],
  "bytecode": "0x608060405234801561001057600080fd5b50610a99806100206000396000f3fe60806040526004361061003f5760003560e01c80632e7700f01461004457806333ea3dc81461006f5780639ace38c2146100ac578063efbc5469146100ee575b600080fd5b34801561005057600080fd5b5061005961010a565b604051610066919061068c565b60405180910390f35b34801561007b57600080fd5b50610096600480360381019061009191906106d8565b610116565b6040516100a391906107d0565b60405180910390f35b3480156100b857600080fd5b506100d360048036038101906100ce91906106d8565b61037b565b6040516100e5969594939291906107fa565b60405180910390f35b61010860048036038101906101039190610899565b610407565b005b60008080549050905090565b61011e610611565b6000808054905003610190576040518060c00160405280600073ffffffffffffffffffffffffffffffffffffffff168152602001600073ffffffffffffffffffffffffffffffffffffffff16815260200160008152602001600081526020016000815260200160008152509050610376565b600080549050821115610203576040518060c00160405280600073ffffffffffffffffffffffffffffffffffffffff168152602001600073ffffffffffffffffffffffffffffffffffffffff16815260200160008152602001600081526020016000815260200160008152509050610376565b6000821015610272576040518060c00160405280600073ffffffffffffffffffffffffffffffffffffffff168152602001600073ffffffffffffffffffffffffffffffffffffffff16815260200160008152602001600081526020016000815260200160008152509050610376565b60008281548110610286576102856108ec565b5b90600052602060002090600602016040518060c00160405290816000820160009054906101000a900473ffffffffffffffffffffffffffffffffffffffff1673ffffffffffffffffffffffffffffffffffffffff1673ffffffffffffffffffffffffffffffffffffffff1681526020016001820160009054906101000a900473ffffffffffffffffffffffffffffffffffffffff1673ffffffffffffffffffffffffffffffffffffffff1673ffffffffffffffffffffffffffffffffffffffff16815260200160028201548152602001600382015481526020016004820154815260200160058201548152505090505b919050565b6000818154811061038b57600080fd5b90600052602060002090600602016000915090508060000160009054906101000a900473ffffffffffffffffffffffffffffffffffffffff16908060010160009054906101000a900473ffffffffffffffffffffffffffffffffffffffff16908060020154908060030154908060040154908060050154905086565b60005a3a610415919061094a565b905060008184610425919061098c565b9050803373ffffffffffffffffffffffffffffffffffffffff16311015610481576040517f08c379a000000000000000000000000000000000000000000000000000000000815260040161047890610a43565b60405180910390fd5b8473ffffffffffffffffffffffffffffffffffffffff166108fc829081150290604051600060405180830381858888f193505050501580156104c7573d6000803e3d6000fd5b5060006040518060c001604052803373ffffffffffffffffffffffffffffffffffffffff1681526020018773ffffffffffffffffffffffffffffffffffffffff168152602001868152602001858152602001428152602001848152509050600081908060018154018082558091505060019003906000526020600020906006020160009091909190915060008201518160000160006101000a81548173ffffffffffffffffffffffffffffffffffffffff021916908373ffffffffffffffffffffffffffffffffffffffff16021790555060208201518160010160006101000a81548173ffffffffffffffffffffffffffffffffffffffff021916908373ffffffffffffffffffffffffffffffffffffffff16021790555060408201518160020155606082015181600301556080820151816004015560a082015181600501555050505050505050565b6040518060c00160405280600073ffffffffffffffffffffffffffffffffffffffff168152602001600073ffffffffffffffffffffffffffffffffffffffff168152602001600081526020016000815260200160008152602001600081525090565b6000819050919050565b61068681610673565b82525050565b60006020820190506106a1600083018461067d565b92915050565b600080fd5b6106b581610673565b81146106c057600080fd5b50565b6000813590506106d2816106ac565b92915050565b6000602082840312156106ee576106ed6106a7565b5b60006106fc848285016106c3565b91505092915050565b600073ffffffffffffffffffffffffffffffffffffffff82169050919050565b600061073082610705565b9050919050565b61074081610725565b82525050565b61074f81610673565b82525050565b60c08201600082015161076b6000850182610737565b50602082015161077e6020850182610737565b5060408201516107916040850182610746565b5060608201516107a46060850182610746565b5060808201516107b76080850182610746565b5060a08201516107ca60a0850182610746565b50505050565b600060c0820190506107e56000830184610755565b92915050565b6107f481610725565b82525050565b600060c08201905061080f60008301896107eb565b61081c60208301886107eb565b610829604083018761067d565b610836606083018661067d565b610843608083018561067d565b61085060a083018461067d565b979650505050505050565b600061086682610705565b9050919050565b6108768161085b565b811461088157600080fd5b50565b6000813590506108938161086d565b92915050565b6000806000606084860312156108b2576108b16106a7565b5b60006108c086828701610884565b93505060206108d1868287016106c3565b92505060406108e2868287016106c3565b9150509250925092565b7f4e487b7100000000000000000000000000000000000000000000000000000000600052603260045260246000fd5b7f4e487b7100000000000000000000000000000000000000000000000000000000600052601160045260246000fd5b600061095582610673565b915061096083610673565b925082820261096e81610673565b915082820484148315176109855761098461091b565b5b5092915050565b600061099782610673565b91506109a283610673565b92508282039050818111156109ba576109b961091b565b5b92915050565b600082825260208201905092915050565b7f496e73756666696369656e742062616c616e636520746f20636f766572206e6560008201527f7420616d6f756e74000000000000000000000000000000000000000000000000602082015250565b6000610a2d6028836109c0565b9150610a38826109d1565b604082019050919050565b60006020820190508181036000830152610a5c81610a20565b905091905056fea26469706673582212200669bae309520a1e4aa17bc8792e525ecd9765e4df59968ac13b264ab224d60764736f6c63430008130033",
  "immutableReferences": {},
  "source": "// SPDX-License-Identifier: MIT\r\npragma solidity ^0.8.19;\r\n\r\ncontract TransactionStorage {\r\n    struct Transaction {\r\n        address sender;\r\n        address receiver;\r\n        uint256 amount;\r\n        uint256 asset_uid;\r\n        uint256 timestamp;\r\n        uint256 gasCharge;\r\n    }\r\n\r\n    Transaction[] public transactions;\r\n\r\n    // Function to add a new transaction\r\n    function addTransaction(\r\n        address payable _receiver,\r\n        uint256 _amount,\r\n        uint256 _asset_uid\r\n    ) public payable {\r\n        // Calculate the gas cost\r\n        uint256 gasCost = tx.gasprice * gasleft();\r\n\r\n        // Calculate the net amount to be transferred\r\n        uint256 netAmount = _amount - gasCost;\r\n\r\n        // Ensure the sender has enough Ether to cover the net amount\r\n        require(\r\n            msg.sender.balance >= netAmount,\r\n            \"Insufficient balance to cover net amount\"\r\n        );\r\n\r\n        // Transfer the net amount to the receiver\r\n        _receiver.transfer(netAmount);\r\n\r\n        // Record the transaction\r\n        Transaction memory newTransaction = Transaction({\r\n            sender: msg.sender,\r\n            receiver: _receiver,\r\n            amount: _amount,\r\n            asset_uid: _asset_uid,\r\n            timestamp: block.timestamp,\r\n            gasCharge: gasCost\r\n        });\r\n        transactions.push(newTransaction);\r\n    }\r\n\r\n    // Function to get the number of transactions\r\n    function getTransactionCount() public view returns (uint256) {\r\n        return transactions.length;\r\n    }\r\n\r\n    // Function to get transaction details by index\r\n    function getTransaction(\r\n        uint256 index\r\n    ) public view returns (Transaction memory) {\r\n        if (transactions.length == 0) {\r\n            // No transactions exist, return a message\r\n            return Transaction(address(0), address(0), 0, 0, 0, 0);\r\n        }\r\n\r\n        if (index > transactions.length) {\r\n            // No transactions exist, return a message\r\n            return Transaction(address(0), address(0), 0, 0, 0, 0);\r\n        }\r\n\r\n        if (index < 0) {\r\n            // No transactions exist, return a message\r\n            return Transaction(address(0), address(0), 0, 0, 0, 0);\r\n        }\r\n\r\n        return transactions[index];\r\n    }\r\n}\r\n",
  "sourcePath": "C:\\Users\\thari\\Desktop\\Swinburne University\\Swinburne University Classes\\BA-CS\\Semester 4\\COS30049 Computing Technology Innovation Project\\innoproj\\BackEnd\\contracts\\transactionStorage.sol",
  "compiler": {
    "name": "solc",
    "version": "0.8.19+commit.7dd6d404.Emscripten.clang"
  },
  "schemaVersion": "3.4.16",
  "updatedAt": "2023-10-10T00:34:46.673Z",
  "devdoc": {
    "kind": "dev",
    "methods": {},
    "version": 1
  },
  "userdoc": {
    "kind": "user",
    "methods": {},
    "version": 1
  }
}